{"abi":[{"type":"function","name":"getNumber","inputs":[{"name":"x","type":"uint256","internalType":"uint256"}],"outputs":[{"name":"","type":"uint256","internalType":"uint256"}],"stateMutability":"pure"}],"bytecode":{"object":"0x6080604052348015600f57600080fd5b50609f8061001e6000396000f3fe6080604052348015600f57600080fd5b506004361060285760003560e01c8063fc56365814602d575b600080fd5b603f60383660046051565b6063190190565b60405190815260200160405180910390f35b600060208284031215606257600080fd5b503591905056fea2646970667358221220ca1e5c569fce4c578bccec7089a0b7590003ad5f2a32abb62895e92a7c8cdace64736f6c63430008180033","linkReferences":{}},"methodIdentifiers":{"getNumber(uint256)":"fc563658"},"id":19}